S01700006B6C31367A3132385F65736C6F72612E73726563D5
S113100020210020B1D40000BD830000BD83000076
S1131010BD830000BD830000BD830000BD830000CC
S1131020BD830000BD830000BD830000BD830000BC
S1131030BD830000BD830000BD830000278A00003B
S1131040278A0000278A0000278A0000278A0000D8
S1131050278A0000278A0000278A0000278A0000C8
S1131060278A0000278A0000278A0000278A0000B8
S1131070278A0000278A0000278A0000278A0000A8
S1131080278A0000278A0000278A0000278A000098
S1131090278A0000278A0000278A0000278A000088
S11310A0278A0000278A0000278A0000278A000078
S11310B0278A0000278A0000278A0000278A000068
S1131400FFFFFFFFFFFFFFFFFFFFFFFF7EFBFFFF6D
S113141000B59E480178002905D1B74855210160DF
S1131420AA210160F5E70021017000BDF0B585B087
S113143000F0D7F86946087068460078012805D19D
S1131440A14800F025F9A14800F022F9002001A9E3
S1131450C873A94855210160AA21016000F052F91E
S1131460FFF7D6FF002001000F290FDAA34A535CCF
S1131470002B02D0535C202B03D1020001AB5A5441
S113148004E0525C01AB5A54491CEDE704009C4D46
S1131490142060432818006900282FD001A91420C3
S11314A060432818001D02F00BFC0700002F0DD12B
S11314B0142060432818001D02F046FC010020009F
S11314C014226243AA181269904717E001A9142054
S11314D06043281802F0F4FB0700002F0CD11420FD
S11314E06043281802F030FC0100200014226243FB
S11314F0AA181269904701E0641CC8E77F4E3100C6
S11315009D4802F0DDFB002806D101229B499C483E
S1131510007802F0DFFE1DE031009AA002F0D0FB5B
S1131520002806D1012295499548007802F0D2FEA0
S113153010E01420604328180069002889D19248DB
S11315400088022885D1012290498D48007802F054
S1131550C1FE7EE705B0F0BD7CB506008C4D674C3E
S11315606B460122288821188548007802F0B2FDD4
S1131570002835D168460088002831D028882018F2
S1131580401E00780D2811D12888205C0A280DD12E
S1131590002001002A88A218521E117001002A8816
S11315A0A1542880012039490870D7E72888205C95
S11315B008280CD1002001002A88A1542988002978
S11315C0CCD02988491E298029886054C6E72888F8
S11315D0401C28802888FF28C0DD00202880BDE723
S11315E073BD38B500F074F8FFF712FF434D2900BE
S11315F0684802F065FB0400002C09D101225F4910
S11316005F48007802F066FE01205F49088039E0F7
S11316102900614802F054FB0400002C09D1012286
S113162056495748007802F055FE02205649088072
S113163028E0290059A002F043FB0400002C09D142
S113164001224E494E48007802F044FE01204E49E2
S1131650088017E02900A1A002F032FB0400002C4E
S113166009D1012245494648007802F033FE0220A0
S11316704549088006E0012299494148007802F072
S113168029FEB1E740480088C0B232BD111D0020D8
S113169038B5050000242000C0B20421484328586E
S11316A0002810D0144855210160AA2101600122AC
S11316B02000C0B20421484329583148007802F080
S11316C009FE641CE7E731BD9CE5000090D20000F0
S11316D038B52B4C83A501222900207802F0FAFDAD
S11316E001228149207802F0F5FD012229002078A9
S11316F002F0F0FD31BD000004810440D814002044
S1131700DCCD0000F8B514271F480088012832D129
S1131710002420003900C0B2C9B2884207D2012295
S113172072A11748007802F0D5FD641CF1E700258A
S11317302E0030003900C0B2C9B2884207D201225B
S11317406BA10F48007802F0C5FD761CF1E7280074
S11317503900C0B2C9B2884207D2012263A1084845
S1131760007802F0B7FD6D1CF1E7012261490448DD
S1131770007802F0AFFDF1BDD4EA0000DCEA00001D
S1131780161D00207A000000641700209CE9000068
S1131790F21C0020A8E90000B4E9000031000000B8
S11317A0F8B507000D000024534E8C20305A012850
S11317B04DD15248FFF76CFFFFF72AFE50480178DD
S11317C0302902DB01783A290BDB0178412902DB5D
S11317D00178472905DB0178612910DB0178672945
S11317E00DDA0178612902DB0478573C07E00178BF
S11317F0412902DB0478373C01E00478303C2000C6
S1131800C0B2012802D002280AD013E001208E21A0
S1131810705201223B493C48007802F05BFD0FE026
S113182002208E217052012238493748007802F094
S113183051FD05E0012236493348007802F04AFDA3
S1131840012234493048007802F044FD44E02C4839
S113185041194978302903DB411949783A290FDBCA
S113186041194978412903DB41194978472907DBA4
S113187041194978612916DB41194978672912DA37
S113188041194978612903DB40194478573C0AE03F
S113189041194978412903DB40194478373C02E077
S11318A040194478303C2000C0B2012803D0200005
S11318B0C0B202280AD12000C0B28E217052012287
S11318C09D491148007802F005FD05E00122044914
S11318D00D48007802F0FEFCF1BD0000320000006B
S11318E0C0E900000D0A000010DA00000800000042
S11318F0200000003CEB0000D816002020E7000088
S1131900D8140020F4DF0000161D0020B4E100000C
S113191014E00000E4EA0000F1B582B00F000025F5
S1131920684605702C00854E8C20305A012800D062
S113193090E08348FFF7ACFEFFF76AFD2800C0B2D1
S113194002281EDA7F482900C9B2415C302910DB25
S11319502900C9B2415C3A290BDA2900C9B2415CB9
S1131960303964182900C9B240184078002804D1DD
S113197002E0FF20040004E003E00A2044436D1C5D
S1131980DCE72000C0B2032806D039D305281DD0D7
S11319900FD3062827D033E00620822170520F206F
S11319A069460870012268496848007802F092FC90
S11319B02CE00720822170520F2069460870012212
S11319C063496248007802F085FC1FE00820822108
S11319D0705207206946087001225E495B4800780E
S11319E002F078FC12E00920822170520520694639
S11319F00870012258495548007802F06BFC05E054
S1131A00012256495148007802F064FC01225449ED
S1131A104E48007802F05EFC52488221715A182226
S1131A204A4380189E21715A04224A4380181C3864
S1131A3001684648007802F0DEFC0122A6494348CA
S1131A40007802F047FC0122A4494048007802F0E3
S1131A5041FC66E02800C0B2022825DA3948290092
S1131A60C9B2791841184978302915DB2900C9B25F
S1131A707918411849783A290EDA2900C9B2791837
S1131A8041184978303964182900C9B279184018C6
S1131A908078002804D102E0FF20040004E003E081
S1131AA00A2044436D1CD5E72000C0B2C01E0128A3
S1131AB004D9801E11D0401E1ED02CE02000C0B2DC
S1131AC0C01C822170520F206946087001221A49F5
S1131AD01E48007802F0FEFB23E02000C0B2C01CC8
S1131AE08221705207206946087001221249174862
S1131AF0007802F0EFFB14E02000C0B2C01C822189
S1131B00705205206946087001220B490F4800787D
S1131B1002F0E0FB05E0012271490C48007802F074
S1131B20D9FB3000843069460978028889B2914231
S1131B3001D201210180F7BDDCEA0000D8160020A3
S1131B40ACE30000D8140020D0E10000161D0020F2
S1131B5094E40000ACE40000C4E4000014E00000DD
S1131B60DCE40000E4CF0000F1B582B00F000025F2
S1131B702C005C480088012869D15B4E01225B4936
S1131B80307802F0A7FBFFF743FC2800C0B202281C
S1131B901EDA57482900C9B2415C302910DB2900FC
S1131BA0C9B2415C3A290BDA2900C9B2415C303927
S1131BB064182900C9B240184078002804D102E012
S1131BC0FF20040004E003E00A2044436D1CDCE72A
S1131BD02000C0B2072814DB2000C0B20D2810DAA0
S1131BE0444800902000C0B2009908800122424974
S1131BF0307802F06FFB00980188307802F0FBFB2C
S1131C0004E001223D49307802F064FB0122A3493B
S1131C10307802F05FFBA248A2498222825A18233C
S1131C205343C9189E22805A0422424388181C3800
S1131C300168307802F0DFFB01222749307802F096
S1131C4049FB01222549307802F044FB42E0280098
S1131C50C0B2022825DA26482900C9B279184118E9
S1131C604978302915DB2900C9B279184118497817
S1131C703A290EDA2900C9B279184118497830395D
S1131C8064182900C9B2791840188078002804D152
S1131C9002E0FF20040004E003E00A2044436D1C3A
S1131CA0D5E72000C0B207280EDB2000C0B20D2803
S1131CB00ADA2000C0B20F49088001227A490A4892
S1131CC0007802F007FB05E0012205490648007888
S1131CD002F000FBF7BD0000ECEA0000E4EA0000BB
S1131CE0C0E9000064170020161D0020ACD60000D7
S1131CF0D814002076170020ECE1000058DB000027
S1131D00F3B581B000273C003D00684800880128F5
S1131D106BD167480188082907D107260122654944
S1131D206548007802F0D6FA11E00088092807D146
S1131D300526012261496048007802F0CBFA06E0EA
S1131D400F2601225E495C48007802F0C3FAFFF7CF
S1131D505FFB3D002800C0B202281DDA5948290063
S1131D60C9B2415C302910DB2900C9B2415C3A296F
S1131D700BDA2900C9B2415C303964182900C9B2B0
S1131D8040184078002803D101E03C0004E003E05F
S1131D900A2044436D1CDDE72000C0B2002817D0A0
S1131DA030002100C0B2C9B2884211D34648009025
S1131DB02000C0B2009908803F4F0122434938787F
S1131DC002F088FA00980188387802F014FB05E0E4
S1131DD001223F493848007802F07CFA01223D494B
S1131DE03548007802F076FA56E02D480100823139
S1131DF00A88082A01D1072605E00988092901D1A2
S1131E00052600E00F263D002900C9B2022928DA80
S1131E102C49029A2B00DBB2D2188A185278302A45
S1131E2018DB029A2B00DBB2D2188A1852783A2AAD
S1131E3010DA029A2B00DBB2D2188A185278303AA0
S1131E40A418029A2B00DBB2D218891889780029C9
S1131E5003D101E03C0004E003E00A214C436D1C83
S1131E60D2E72100C9B2002910D031002200C9B242
S1131E70D2B291420AD32100C9B2842281520122F2
S1131E8009490D48007802F025FA05E00122964937
S1131E900948007802F01EFAF7BD0000DCE40000F7
S1131EA0D8160020E4CF0000DCEA0000641700200C
S1131EB05A1700207CDB0000161D0020A0DB000068
S1131EC0C4DB0000D81400205C170020ECE80000FC
S1131ED0F4E40000E4EA0000F1B50E00002425005B
S1131EE0824F8C20385A01287DD1012280498148B3
S1131EF0007802F0EFF9FFF78BFA2000C0B2042853
S1131F0047DA7D482100C9B2415C302904DB210055
S1131F10C9B2415C3A2913DB2100C9B2415C4129B1
S1131F2004DB2100C9B2415C472909DB2100C9B2A5
S1131F30415C612926DB2100C9B2415C672921DAB1
S1131F402100C9B2415C612904DB2100C9B2415CB2
S1131F5057390DE02100C9B2415C412904DB21005D
S1131F60C9B2415C373903E02100C9B2415C303960
S1131F702A000D0015432100C9B2401840780028FA
S1131F8004D102E00420040003E002E02D01641CFB
S1131F90B3E7280080B2002818D0280080B257493F
S1131FA0884213D02000C0B204280FDA92373D8053
S1131FB0012253494F48007802F08CF90023022291
S1131FC039004C48007802F0A6F905E001224D4999
S1131FD04848007802F07EF901224B4945480078D0
S1131FE002F078F97EE02000C0B204285EDA4248AC
S1131FF02100C9B2711841184978302906DB210043
S1132000C9B27118411849783A291BDB2100C9B2B9
S1132010711841184978412906DB2100C9B27118A9
S11320204118497847290DDB2100C9B271184118BC
S11320304978612933DB2100C9B271184118497804
S113204067292CDA2100C9B271184118497861292D
S113205006DB2100C9B2711841184978573913E0D9
S11320602100C9B2711841184978412906DB2100C1
S1132070C9B2711841184978373905E02100C9B24D
S113208071184118497830392A000D001543210090
S1132090C9B2711840188078002804D102E00420E5
S11320A0040003E002E02D01641C9CE7280080B2D8
S11320B0002811D0280080B2104988420CD020009A
S11320C0C0B2042808DA92203D5201228F490948FF
S11320D0007802F0FFF805E0012203490548007882
S11320E002F0F8F8F1BD0000C0E90000D8160020A5
S11320F048D90000161D0020D8140020FFFF00005E
S1132100A8E600000CE50000E4EA0000F1B50E00CA
S1132110002425007E4F8C20385A012879D10122D1
S11321207C497D48007802F0D5F8FFF771F920006A
S1132130C0B2042847DA79482100C9B2415C302989
S113214004DB2100C9B2415C3A2913DB2100C9B286
S1132150415C412904DB2100C9B2415C472909DB08
S11321602100C9B2415C612926DB2100C9B2415C6E
S1132170672921DA2100C9B2415C612904DB21000D
S1132180C9B2415C57390DE02100C9B2415C412913
S113219004DB2100C9B2415C373903E02100C9B234
S11321A0415C30392A000D0015432100C9B24018A2
S11321B04078002804D102E00420040003E002E097
S11321C02D01641CB3E7280080B25549884213D01E
S11321D02000C0B204280FDAA2373D800122514901
S11321E04D48007802F076F80023022239004A486C
S11321F0007802F090F805E001224B494648007847
S113220002F068F8012249494348007802F062F874
S11322107AE02000C0B204285EDA40482100C9B246
S1132220711841184978302906DB2100C9B27118A8
S1132230411849783A291BDB2100C9B271184118A9
S11322404978412906DB2100C9B27118411849783F
S113225047290DDB2100C9B2711841184978612959
S113226033DB2100C9B271184118497867292CDA87
S11322702100C9B2711841184978612906DB21008F
S1132280C9B2711841184978573913E02100C9B20D
S1132290711841184978412906DB2100C9B2711827
S11322A041184978373905E02100C9B2711841183D
S11322B0497830392A000D0015432100C9B271183C
S11322C040188078002804D102E00420040003E0D0
S11322D002E02D01641C9CE7280080B2104988426A
S11322E00CD02000C0B2042808DAA2203D520122FA
S11322F006490948007801F0EDFF05E0012287490D
S11323000548007801F0E6FFF1BD0000DCEA0000BA
S1132310D8160020D8D60000161D0020D81400209E
S1132320FFFF000024E5000008E20000E4EA0000EA
S1132330F1B50E0000242500794F8C20385A01286D
S113234074D1012277497848007801F0C3FFFFF780
S11323505FF82000C0B2042847DA74482100C9B2EB
S1132360415C302904DB2100C9B2415C3A2913DB0A
S11323702100C9B2415C412904DB2100C9B2415C9E
S1132380472909DB2100C9B2415C612926DB210010
S1132390C9B2415C672921DA2100C9B2415C6129D3
S11323A004DB2100C9B2415C57390DE02100C9B2F8
S11323B0415C412904DB2100C9B2415C373903E0A7
S11323C02100C9B2415C30392A000D0015432100B7
S11323D0C9B240184078002804D102E00420040067
S11323E003E002E02D01641CB3E72000C0B204281E
S11323F00FDA86373D8001229C494B48007801F072
S113240069FF0023022239004748007801F083FF66
S113241005E0012296494448007801F05BFF01225F
S113242094494148007801F055FF75E02000C0B29E
S113243004285EDA3D482100C9B271184118497870
S1132440302906DB2100C9B27118411849783A29AC
S11324501BDB2100C9B2711841184978412906DBF8
S11324602100C9B271184118497847290DDB2100B0
S1132470C9B2711841184978612933DB2100C9B206
S113248071184118497867292CDA2100C9B27118EA
S113249041184978612906DB2100C9B27118411835
S11324A04978573913E02100C9B2711841184978A5
S11324B0412906DB2100C9B271184118497837391E
S11324C005E02100C9B271184118497830392A0051
S11324D00D0015432100C9B27118401880780028F6
S11324E004D102E00420040003E002E02D01641C96
S11324F09CE72000C0B2042808DA86203D5201225D
S11325005D490948007801F0E5FE05E00122034930
S11325100548007801F0DEFEF1BD0000C0E90000CE
S1132520D8160020C4D50000161D0020D8140020A1
S1132530F8B507000D0000249B4E8C20305A01286A
S11325404DD19A48FFF7A4F8FEF762FF9848017846
S1132550302902DB01783A290BDB0178412902DBBF
S11325600178472905DB0178612910DB01786729A7
S11325700DDA0178612902DB0478573C07E0017821
S1132580412902DB0478373C01E00478303C200028
S1132590C0B2012802D002280AD013E00120802111
S11325A07052012283498448007801F093FE0FE0C1
S11325B0022080217052012280497F48007801F076
S11325C089FE05E001227E497B48007801F082FE05
S11325D0012228497848007801F07CFE44E07448E0
S11325E041194978302903DB411949783A290FDB2D
S11325F041194978412903DB41194978472907DB07
S113260041194978612916DB41194978672912DA99
S113261041194978612903DB40194478573C0AE0A1
S113262041194978412903DB40194478373C02E0D9
S113263040194478303C2000C0B2012803D0200067
S1132640C0B202280AD12000C0B2802170520122F7
S113265009495948007801F03DFE05E00122594935
S11326605548007801F036FEF1BD000024E2000078
S113267034E00000E4EA0000DCEA0000F1B50F00F9
S113268000252C00484E8C20305A01284BD10122C1
S11326909C494948007801F01DFEFEF7B9FE280068
S11326A0C0B202281EDA42482900C9B2415C30296E
S11326B010DB2900C9B2415C3A290BDA2900C9B2FE
S11326C0415C303964182900C9B2401840780028A8
S11326D004D102E0FF20040004E003E00A204443A4
S11326E06D1CDCE72000C0B20B280FDA9636200000
S11326F0C0B23080012284492F48007801F0EAFDFD
S113270031882D48007801F076FE05E001227F49EA
S11327102948007801F0DEFD01227D492648007831
S113272001F0D8FD3EE02800C0B2022825DA204896
S11327302900C9B2791841184978302915DB2900D4
S1132740C9B27918411849783A290EDA2900C9B270
S1132750791841184978303964182900C9B27918B0
S113276040188078002804D102E0FF20040004E02F
S113277003E00A2044436D1CD5E72000C0B20B28B7
S11327800ADA2000C0B296217052012261490A4837
S1132790007801F09FFD05E001220A49064800780F
S11327A001F098FDF1BD0000D81600200CE70000F0
S11327B0D81400203CE50000161D002054E500005C
S11327C014E00000C0E90000F8B507000D00002483
S11327D0514E8C20305A01284DD15048FEF758FFF5
S11327E0FEF716FE9D480178302902DB01783A296C
S11327F00BDB0178412902DB0178472905DB0178ED
S1132800612910DB017867290DDA0178612902DB7F
S11328100478573C07E00178412902DB0478373C0F
S113282001E00478303C2000C0B2012802D0022824
S11328300AD013E00120A42170520122884989485A
S1132840007801F047FD0FE00220A421705201221C
S113285085498448007801F03DFD05E00122834963
S11328608048007801F036FD012229497D4800782E
S113287001F030FD44E0794841194978302903DBFF
S1132880411949783A290FDB41194978412903DB79
S113289041194978472907DB41194978612916DB31
S11328A041194978672912DA41194978612903DB0A
S11328B040194478573C0AE041194978412903DB1F
S11328C040194478373C02E040194478303C2000F9
S11328D0C0B2012803D02000C0B202280AD12000CF
S11328E0C0B2A421705201220A495E48007801F066
S11328F0F1FC05E001225E495A48007801F0EAFC47
S1132900F1BD000070D90000BCE6000040E2000008
S1132910E4EA0000DCEA0000D816002048E70000E2
S1132920F8B507000D000024524E8C20305A0128BF
S11329304DD15148FEF7ACFEFEF76AFD47480178D9
S1132940302902DB01783A290BDB0178412902DBCB
S11329500178472905DB0178612910DB01786729B3
S11329600DDA0178612902DB0478573C07E001782D
S1132970412902DB0478373C01E00478303C200034
S1132980C0B2012802D002280AD013E00120942109
S11329907052012288493348007801F09BFC0FE013
S11329A0022094217052012284492E48007801F0BB
S11329B091FC05E001222D492A48007801F08AFCA7
S11329C001227F492748007801F084FC44E0234831
S11329D041194978302903DB411949783A290FDB39
S11329E041194978412903DB41194978472907DB13
S11329F041194978612916DB41194978672912DAA6
S1132A0041194978612903DB40194478573C0AE0AD
S1132A1041194978412903DB40194478373C02E0E5
S1132A2040194478303C2000C0B2012803D0200073
S1132A30C0B202280AD12000C0B2942170520122EF
S1132A4060490848007801F045FC05E00122084986
S1132A500448007801F03EFCF1BD0000D8140020C9
S1132A6054E00000161D00205CE2000014E00000A9
S1132A70C0E90000D81600200CE70000F8B50700F4
S1132A800D000024504E8C20305A01284DD14F485F
S1132A90FEF7FEFDFEF7BCFC9C480178302902DB02
S1132AA001783A290BDB0178412902DB01784729B7
S1132AB005DB0178612910DB017867290DDA0178DB
S1132AC0612902DB0478573C07E00178412902DBE5
S1132AD00478373C01E00478303C2000C0B201287F
S1132AE002D002280AD013E001209C217052012256
S1132AF087498848007801F0EDFB0FE002209C2113
S1132B007052012284498348007801F0E3FB05E018
S1132B10012282497F48007801F0DCFB0122284928
S1132B207C48007801F0D6FB44E0784841194978A4
S1132B30302903DB411949783A290FDB41194978D7
S1132B40412903DB41194978472907DB41194978B1
S1132B50612916DB41194978672912DA4119497844
S1132B60612903DB40194478573C0AE0411949784C
S1132B70412903DB40194478373C02E0401944788A
S1132B80303C2000C0B2012803D02000C0B202288B
S1132B900AD12000C0B29C217052012209495D482B
S1132BA0007801F097FB05E001225D49594800785F
S1132BB001F090FBF1BD000098D90000C0D90000DD
S1132BC0E4EA0000DCEA0000D81600200CE700006C
S1132BD0F8B507000D000024524E8C20305A01280D
S1132BE04DD15148FEF754FDFEF712FC47480178D9
S1132BF0302902DB01783A290BDB0178412902DB19
S1132C000178472905DB0178612910DB0178672900
S1132C100DDA0178612902DB0478573C07E001787A
S1132C20412902DB0478373C01E00478303C200081
S1132C30C0B2012802D002280AD013E0012090215A
S1132C407052012239493348007801F043FB0FE008
S1132C50022090217052012235492E48007801F05B
S1132C6039FB05E001222D492A48007801F032FBA6
S1132C70012230492748007801F02CFB44E0234826
S1132C8041194978302903DB411949783A290FDB86
S1132C9041194978412903DB41194978472907DB60
S1132CA041194978612916DB41194978672912DAF3
S1132CB041194978612903DB40194478573C0AE0FB
S1132CC041194978412903DB40194478373C02E033
S1132CD040194478303C2000C0B2012803D02000C1
S1132CE0C0B202280AD12000C0B290217052012241
S1132CF095490848007801F0EDFA05E001220849F9
S1132D000448007801F0E6FAF1BD0000D814002070
S1132D1078E20000161D002074E0000014E00000BA
S1132D20C0E90000D816002034E7000094E0000059
S1132D3094E20000E4EA0000F8B507000E00002564
S1132D40824C8C20205A01287CD18148FEF7A0FCBB
S1132D50FEF75EFB7F480178302902DB01783A29CF
S1132D600BDB0178412902DB0178472905DB017877
S1132D70612910DB017867290DDA0178612902DB0A
S1132D800578573D07E00178412902DB0578373D96
S1132D9001E00578303D2800C0B2012809D044D3B1
S1132DA003281AD00FD305282BD020D3062832D0DD
S1132DB03BE096208001A0600122674967480078C3
S1132DC001F088FA37E09620C001A060012264492E
S1132DD06248007801F07EFA2DE096200002A0609F
S1132DE0012260495D48007801F074FA23E0E12093
S1132DF00002A06001225C495848007801F06AFA98
S1132E0019E0E1204002A0600122584953480078AB
S1132E1001F060FA0FE0E1208002A0600122544931
S1132E204E48007801F056FA05E0012251494B481A
S1132E30007801F04FFA01224F494848007801F028
S1132E4049FA7BE0434881194978302903DB811929
S1132E5049783A290FDB81194978412903DB811923
S1132E604978472907DB81194978612916DB8119DB
S1132E704978672912DA81194978612903DB8019B5
S1132E804578573D0AE081194978412903DB8019C7
S1132E904578373D02E080194578303D2800C0B2BE
S1132EA0012809D044D303281AD00FD305282BD0E6
S1132EB020D3062832D03BE096208001A060012276
S1132EC021492648007801F005FA37E09620C00130
S1132ED0A06001221C492148007801F0FBF92DE093
S1132EE096200002A060012217491C48007801F0D6
S1132EF0F1F923E0E1200002A06001221249174801
S1132F00007801F0E7F919E0E1204002A060012215
S1132F100D491248007801F0DDF90FE0E12080024C
S1132F20A060012208490D48007801F0D3F905E0BA
S1132F30012269490948007801F0CCF9A1680748E1
S1132F40007801F03DF9F1BDDCEA0000D81600205C
S1132F5048DF0000D8140020B0E20000161D002055
S1132F60CCE20000E8E2000004E30000B4E000006A
S1132F70D4E0000014E00000E4EA0000F8B5070023
S1132F800D000024554E8C20305A012859D1544844
S1132F90FEF77EFBFEF73CFA9D480178302902DB00
S1132FA001783A290BDB0178412902DB01784729B2
S1132FB005DB0178612910DB017867290DDA0178D6
S1132FC0612902DB0478573C07E00178412902DBE0
S1132FD00478373C01E00478303C2000C0B201287A
S1132FE004D021D3032815D00AD31DE00120A02149
S1132FF07052012287498848007801F06BF919E082
S11330000220A0217052012284498348007801F0F3
S113301061F90FE00320A0217052012280497E480B
S1133020007801F057F905E001227E497A480078DA
S113303001F050F901227C497748007801F04AF9FF
S113304048E0734841194978302903DB411949782C
S11330503A290FDB41194978412903DB41194978A1
S1133060472907DB41194978612916DB4119497859
S1133070672912DA41194978612903DB4019447838
S1133080573C0AE041194978412903DB4019447847
S1133090373C02E040194478303C2000C0B201289B
S11330A007D02000C0B2022803D02000C0B20328F9
S11330B00AD12000C0B2A021705201225B495648B7
S11330C0007801F007F905E001220349524800782D
S11330D001F000F9F1BD0000C0E90000D81600209D
S11330E0B4E50000F3B581B000263400504F8C20C5
S11330F0385A012849D101224E494748007801F045
S1133100E9F8FEF785F935002800C0B206281DDA73
S11331103F482900C9B2415C302910DB2900C9B2FB
S1133120415C3A290BDA2900C9B2415C3039641890
S11331302900C9B240184078002803D101E03400C6
S113314004E003E00A2044436D1CDDE7002C0FD0AB
S1133150A04884420CD2FC6001229F492E4800788A
S113316001F0B8F8F9682C48007801F044F905E05A
S113317001229A492848007801F0ACF801222A4932
S11331802548007801F0A6F840E035002800C0B2D8
S1133190062828DA1E4802992A00D2B28918411852
S11331A04978302918DB02992A00D2B289184118CB
S11331B049783A2910DA02992A00D2B289184118BA
S11331C049783039641802992A00D2B28918401813
S11331D08078002803D101E0340004E003E00A20F1
S11331E044436D1CD2E7002C0AD07A48844207D2AB
S11331F0FC6001220D490848007801F06BF805E0F5
S1133200012277490448007801F064F8F7BD000012
S1133210D8140020F4E00000161D0020E8DB0000B4
S11332200CDC000014E00000E4EA0000DCEA00002A
S1133230D816002004D70000F1B582B00F00002595
S11332402C00280069460870664E8C20305A0128EC
S11332506DD101226449B548007801F03BF8FEF7CE
S1133260D7F82800C0B203282ADA2800C0B2002800
S113327007D15E4800782D2803D1012069460870E3
S11332801CE05A482900C9B2415C302910DB2900EE
S1133290C9B2415C3A290BDA2900C9B2415C303920
S11332A064182900C9B240184078002804D102E00B
S11332B0FF20040004E003E00A2044436D1CD0E72F
S11332C068460078012801D1604204000320C0430D
S11332D084421FDB0E2C1DDA346101229449934889
S11332E0007800F0F7FF6846007801280CD101222D
S11332F090A18E48007800F0EDFF306941428B4880
S1133300007801F078F80BE031698848007801F022
S113331072F805E0012288498448007800F0DAFF59
S1133320012286498148007800F0D4FF50E028004B
S1133330C0B2032832DA2800C0B2002808D12B48D2
S1133340C01940782D2803D101206946087023E074
S113335026482900C9B2791841184978302915DB63
S11333602900C9B27918411849783A290EDA290096
S1133370C9B2791841184978303964182900C9B29A
S1133380791840188078002804D102E0FF20040056
S113339004E003E00A2044436D1CC8E76846007853
S11333A0012801D1604204000320C043844209DBA8
S11333B00E2C07DA3461012261495C48007800F080
S11333C089FF05E0012206495848007800F082FF91
S11333D0F7BD0000012F0D00D0E6000020E300003F
S11333E0C0E90000D816002030D70000D81400200F
S11333F0F8B507000D0000249A4E8C20305A01289D
S11334004DD19948FEF744F9FEF702F89748017840
S1133410302902DB01783A290BDB0178412902DBF0
S11334200178472905DB0178612910DB01786729D8
S11334300DDA0178612902DB0478573C07E0017852
S1133440412902DB0478373C01E00478303C200059
S1133450C0B2012802D002280AD013E00120A6211C
S1133460705201229F493148007800F033FF0FE089
S11334700220A621705201229B492C48007800F0BA
S113348029FF05E0012299492848007800F022FF2D
S113349001222A492548007800F01CFF44E07348C3
S11334A041194978302903DB411949783A290FDB5E
S11334B041194978412903DB41194978472907DB38
S11334C041194978612916DB41194978672912DACB
S11334D041194978612903DB40194478573C0AE0D3
S11334E041194978412903DB40194478373C02E00B
S11334F040194478303C2000C0B2012803D0200099
S1133500C0B202280AD12000C0B2A6217052012202
S11335100B490648007800F0DDFE05E001228549EC
S11335200248007800F0D6FEF1BD0000161D002010
S11335306CE500002D00000014E10000E4EA000046
S1133540DCEA0000F1B50F0000252C00454E8C206C
S1133550305A012848D101227749B248007800F056
S1133560B9FEFDF755FF2800C0B205281FDA3F4811
S11335702900C9B2415C302910DB2900C9B2415C81
S11335803A290BDA2900C9B2415C303964182900A0
S1133590C9B240184078002805D103E00020C04398
S11335A0040004E003E00A2044436D1CDBE79E486A
S11335B084420CD2746101228E499A48007800F04A
S11335C089FE71699748007800F015FF05E0012233
S11335D096499448007800F07DFE01229449914870
S11335E0007800F077FE3BE02800C0B2052826DA18
S11335F01E482900C9B2791841184978302915DBC9
S11336002900C9B27918411849783A290EDA2900F3
S1133610C9B2791841184978303964182900C9B2F7
S1133620791840188078002805D103E00020C043B1
S1133630040004E003E00A2044436D1CD4E77A4804
S1133640844207D2746101227A497648007800F0F6
S113365041FE05E0012237497248007800F03AFE45
S1133660F1BD0000D81600205CE70000D81400204B
S1133670F1B50F00704C8C20205A012820D1694DDF
S113368001226E49287800F025FEFDF7C1FE6C4E3C
S113369032226C49300001F0DCF800204A216054E9
S11336A001226949287800F015FE012231002878AA
S11336B000F010FE01225E49287800F00BFE10E0B5
S11336C032226048C019411C2000183001F0C1F8B2
S11336D000204A216054012256495248007800F0E3
S11336E0F9FDF1BD34E1000054E1000014E00000F4
S11336F0F1B50F00554E3088012805D1012254A19F
S11337004848007800F0E6FD464C012251492078F3
S113371000F0E0FD4EA501222900207800F0DAFD3A
S11337203088012804D101222900207800F0D2FD3C
S1133730F1BD0000C0E90000E8D90000F3B581B094
S11337403D4D2E008C363088012805D10122424996
S11337503448007800F0BEFD01F0A4F8F8246402B7
S1133760200001F061F90700002F12D030880128F1
S113377006D1012239492B48007800F0ABFD05E061
S1133780012237492748007800F0A4FD01F098F899
S11337902FE0A8200090009882082900200001F062
S11337A02EF90400002C12D03088012806D1012201
S11337B02C491C48007800F08DFD05E001222A49BF
S11337C01848007800F086FD01F07AF811E001F065
S11337D077F83088012806D101222449114800785D
S11337E000F078FD05E0012212490E48007800F04F
S11337F071FDF7BDE4E6000070B506000D0001F0B0
S11338001DFB0D4C8C20205A022805D101220949A8
S11338100448007800F05EFDA1680248007800F0DA
S1133820CFFC70BD161D0020815101003CE3000057
S1133830E4EA0000DCEA0000D816002058E30000A7
S1133840F0160020D8140020F8E6000064170020C9
S11338500D0A00006CE9000084E5000074E3000038
S1133860CCE9000090E30000D8E90000E4E900009E
S1133870F3B581B0C44C0122C449207800F02AFD7C
S11338800122C349207800F025FD0122C149207896
S113389000F020FDD14D28008E300188012905D18A
S11338A00122CF49207800F015FD07E000880228A6
S11338B004D10122CB49207800F00CFDCA4E5520DA
S11338C03060AA2030600122C849207800F002FD4F
S11338D08220285A042805D10122C549207800F005
S11338E0F9FC2AE08220285A052805D10122C14981
S11338F0207800F0EFFC20E0BF480188062905D1BC
S11339000122BE49207800F0E5FC16E00188072971
S113391005D10122BA49207800F0DCFC0DE00088D2
S1133920082805D10122B749207800F0D3FC04E02F
S11339300122B549207800F0CDFC0122B34920785A
S113394000F0C8FCB74F3988207800F054FD0122FC
S1133950B549207800F0BEFCB4488221695A182287
S11339604A438018398804224A4380181C38016865
S1133970207800F040FD0122ADA1207800F0AAFCDF
S11339800122AC49207800F0A5FC8420295A207833
S113399000F031FD01229E49207800F09BFC0023B9
S11339A0022229009231207800F0B5FC0122A249BC
S11339B0207800F08FFC002302222900A231207815
S11339C000F0A9FC01229D49207800F083FC00232B
S11339D0022229008631207800F09DFC55273760AB
S11339E0AA20306001229649207800F073FC8020E0
S11339F0285A012805D1012292A1207800F06AFCFE
S1133A0004E0012290A1207800F064FC01228F4997
S1133A10207800F05FFC9620295A207800F0EBFC17
S1133A2001228B49207800F055FCA420285A012853
S1133A3005D101228749207800F04CFC04E00122E2
S1133A408549207800F046FC3760AA2030600122C6
S1133A508249207800F03EFC9420285A012805D1A0
S1133A60012278A1207800F035FC04E0012276A13F
S1133A70207800F02FFC01227949207800F02AFCFC
S1133A809C20285A012805D101226EA1207800F03B
S1133A9021FC04E001226CA1207800F01BFC01222F
S1133AA07049207800F016FC9020285A012805D18E
S1133AB001226D49207800F00DFC04E001226B49DD
S1133AC0207800F007FC01226949207800F002FC0C
S1133AD0A968207800F08FFC3760AA2030600122AA
S1133AE06449207800F0F6FB2800A0300188012901
S1133AF005D101226049207800F0ECFB0DE000883C
S1133B00022805D101225D49207800F0E3FB04E09E
S1133B1001225B49207800F0DDFB0122594920781D
S1133B2000F0D8FBE968207800F065FC01225649D2
S1133B30207800F0CFFB286900280AD5012253A180
S1133B40207800F0C7FB28694142207800F053FC3C
S1133B5003E02969207800F04EFC01224CA1207872
S1133B6000F0B8FB3760AA20306001224949207870
S1133B7000F0B0FBA620285A01280DD101224649A5
S1133B80207800F0A7FB0CE0161D002030DC0000BC
S1133B905CD7000054DC000001224049207800F08A
S1133BA099FB01223E49207800F094FB6969207852
S1133BB000F021FC3760AA203060012239492078C6
S1133BC000F088FB012229001831207800F082FBE4
S1133BD001223549207800F07DFBF7BDD81600207E
S1133BE0F0E90000FCE900000481044078DC0000F6
S1133BF008EA0000F4EA00005A170020FCEA00007A
S1133C0004EB00000CEB000014EB00009CDC000053
S1133C1008DD000038B505000C002448FDF738FD28
S1133C2031BD000076170020C0DC0000E4CF0000A6
S1133C3062707300E4DC00002CDD000050DD000045
S1133C4074DD00004F4E00004F46460098DD000032
S1133C50BCDD00001CEB000024EB0000E0DD0000F4
S1133C6004DE000028DE0000FCE8000014EA000086
S1133C704CDE000070DE000020EA00000CE90000C9
S1133C802CEA000094DE0000B8DE00002D000000E5
S1133C9064426D00DCDE00002CEB000034EB00001D
S1133CA000DF000024DF0000E4EA000090D20000FE
S1133CB002780B78002A2FD0401C491C9A422BD141
S1133CC08207F5D170B41F4CE5018A0726D104C8D8
S1133CD008C9161B96432E4208D19A42F7D070BCED
S1133CE012BA1BBA9A4280414041704770BC12BA62
S1133CF01BBA100E0BD0FF21100C084208D0100A7A
S1133D00084206D0D01A01D08041404170471B0AB6
S1133D101B0A1B0AC01A7047D01A70470B784A78DE
S1133D20120213438A7812041343CA781206134307
S1133D30091D04C8161B96432E42D7D19A42EDD0D2
S1133D40CDE7000001010101431C0178401C094238
S1133D50FBD1C01A7047000010B5AD4C2068002894
S1133D6010D1AC48AC490860AC48AD490860802229
S1133D7052000021AB4800F076FD0021AA4801F072
S1133D80DAF9206010BDF1B584B000273C002000B2
S1133D9080B200280BD1FF20A249220092B28023D6
S1133DA05B005343C918FB228854641CEFE70022CC
S1133DB0D243002101A801F026FB380004002000B2
S1133DC080B20028F3D101F0C9FB80256D00954E27
S1133DD0200080B268433018FC21405C69460870BA
S1133DE0200080B268433018FC213A00425401F0AC
S1133DF0B1FB68460078C00711D5200080B2684343
S1133E003018806800280AD0200080B26843301837
S1133E10C068210089B26943711889688847684677
S1133E200078800705D5200080B26843301800F080
S1133E30A7FC200080B268433018FB21405CFF28B7
S1133E4037D1200080B268433018210089B2694319
S1133E507118FA22895C1022514340185E21405C9B
S1133E60C00726D5200080B268433018210089B2EB
S1133E7069437118FA22895C1022514340185C216D
S1133E80405A002815D0200080B268433018FB2126
S1133E90220092B255437219FA23D25C4254200094
S1133EA0C0B200F0D6FA002803D0200080B200F09F
S1133EB05AFB641C83E7F5B583B00F00FF20039918
S1133EC0087000242000C0B2002800D09CE08026A6
S1133ED07600544D2000C0B2704328180079390090
S1133EE0C9B288420AD12000C0B270432818407970
S1133EF06946097C884201D1052086E02000C0B2D1
S1133F0070432818007900287CD12000C0B2704387
S1133F1028186946097C41713800C0B201284CD187
S1133F202000C0B270432818407901280ED1200027
S1133F30C0B201F047FB2100C9B2714368502000B0
S1133F40C0B270432858002804D101E002205CE08C
S1133F5006205AE02000C0B2704328184079012896
S1133F6029D101222000C0B2704328182100C9B20F
S1133F707143691889794018010010312000C0B2DA
S1133F807043285801F07CFB2000C0B2704329180C
S1133F90F022009201910021002001F09BF9019987
S1133FA0009A88502000C0B270432818F02140586D
S1133FB0002806D103E0022027E0022025E00720A4
S1133FC023E02000C0B270432918F422009201912A
S1133FD00021002001F07EF90199009A8850200008
S1133FE0C0B270432818F4214058002801D107209A
S1133FF00BE02000C0B270432818077103980470C6
S1134000002002E0641C5DE7032005B0F0BD000061
S11340109C1C0020C3440000781C0020674500005D
S11340207C1C0020D811002000F0FF1FFEB5070003
S11340300E0015001C000020019008980090230039
S11340402A0092B231003800C0B200F0F8FAFEBD86
S1134050F2B584B0060017000025280069464872AE
S11340600224684604728A483100C9B28022520090
S113407051434018039001F0EBF8864909688842DF
S113408001D1684605726846007A019000200090CC
S113409000233A0092B204993000C0B200F0CFFA83
S11340A005002800C0B2002810D16846007A2042DA
S11340B007D00021C9430398F022805801F035F954
S11340C004E00398FB21405CFF28FAD12800C0B229
S11340D005B0F0BDF8B504000E0015001F00200067
S11340E0C0B2002807D1002E05D0002F03D028002D
S11340F080B2002801D1012014E065482100C9B232
S113410080225200514340180079012809D12A0025
S113411092B231002000C0B200F059FA3880002079
S113412000E00220F2BD30B502001000C0B2002849
S113413001D1002901D101202AE080204000544B04
S11341401400E4B244431C19A4791500EDB24543AC
S11341505D19ED79AC420CD31400E4B244431C194C
S1134160A4791500EDB245435819C079201A088086
S11341700DE040241500EDB245435D19ED79641B53
S11341801500EDB2454358198079201808800020A5
S113419030BD30B503001800C0B2002801D00120A2
S11341A00DE0802040003A4C1D00EDB245436519F6
S11341B0A9601D00EDB245436019C260002030BD06
S11341C070B505000E002800C0B2002801D1002EF1
S11341D001D101205BE0802040002D4A2900C9B2B2
S11341E0414351180979012950D131009623DB004C
S11341F0994220D096231B0199421ED096235B013D
S113420099421CD096239B0199421AD09623DB0134
S1134210994218D096231B02994216D0E1231B021F
S1134220994214D0E1235B02994212D0E1239B020C
S1134230994210D011E0002411E001240FE002247F
S11342400DE003240BE0042409E0052407E0062420
S113425005E0072403E0082401E0012017E0290019
S1134260C9B241435118497901290DD12100C9B27C
S11342702B00DBB24343D05801F04CFA002801D0A4
S1134280062004E0002002E0022000E0022070BDCD
S1134290D81100209C1C0020F8B506000D00140065
S11342A01F003800C0B2002808D02200D2B292B257
S11342B029003000C0B2FFF7CBFE0AE000200090D6
S11342C000232200D2B292B229003000C0B2FFF71C
S11342D0ADFEF2BD7CB505000C0016003000C0B286
S11342E000280AD02000FFF72FFD020092B221001F
S11342F02800C0B2FFF7ACFE0CE02000FFF724FD5D
S1134300002100910023020092B221002800C0B2D3
S1134310FFF78CFE76BDF1B584B00D0016001F00CA
S11343200024F80703D43000C0B22D186D1E3000ED
S1134330C0B200285CD000221100491C2878C0B209
S11343400009C0B20A2801DA302300E0372301A8AB
S11343502C78E4B22409E318D2B283546A4651702B
S113436069464C78641C0F212A780A400A2A01DA2B
S1134370302200E037222B78194089186A46527897
S11343808154790704D52C212200D2B28154641CB3
S1134390390704D520212200D2B28154641CF907C4
S11343A001D5012101E00021C9436D18761E3100B9
S11343B0C9B200290BD1B90709D50A212200D2B20A
S11343C08154641C0D212200D2B28154641C220049
S11343D0D2B292B201A96846007CFFF739FE694661
S11343E00870684600780028A1D06846007800E08C
S11343F0002005B0F0BDFEB506000D000B24002D15
S113440005D1302069462200D2B2885413E0002D31
S113441010D00A272800390001F0A7FA3031684685
S11344202200D2B281542800390001F09EFA05001E
S1134430641EECE7641C0C202100C9B2421A92B23B
S113444068462100C9B241183000C0B2FFF700FE2F
S1134450FEBDF8B5040080204000C7492200D2B256
S113446042438E18FB22B75C00252200D2B242439D
S11344708A181279012A22D12200D2B24243881822
S11344804079012815D1380080B2102141437018B9
S11344905C21425A380080B2102141437018816D6A
S11344A0306801F00CF90100080080B2002804D142
S11344B001E0022004E0002002E0062000E00220E7
S11344C0F2BDF8B507003C0080267600AA4D200016
S11344D0704328188179491C200070432818817181
S11344E02000704328188079402804DB0021200034
S11344F0704328188171200070432818007901281E
S113450006D003281DD004281AD006281AD019E092
S11345102000704328184079012810D1012220007E
S11345207043291820007043281880790818010066
S1134530103120007043285801F0A2F8FFE701E091
S113454000E0FFE7200070432818FC21405C0121B3
S113455001436643A819FC2281540121874800685D
S113456000F01EFFF1BD70B50400834880214900AE
S113457061434518FB202E5CFC20285C022101438A
S1134580FC2029540020010010227243AA185C2345
S1134590D152761C0A2E00D30600F920285C8642EC
S11345A00CD03000FB2168542000C0B2FFF751FF4B
S11345B0002806D0FF20FB21685402E0FF20FB21E5
S11345C0685402216D48006800F0EAFE70BDF8B539
S11345D006000C00170068483100C9B2802252005E
S11345E05143451869463000C0B2FFF79CFD684648
S11345F00088002820D038006946098880B28842A3
S113460001D268460780002001000A006B461B881F
S113461092B29A4210D2EA7913005B1CEB71D2B2C7
S1134620AA18127C0B009BB2E254EA79402A01DBFF
S11346300200EA71491CE8E768460088F2BDFFB54C
S113464081B0002500954C486946097980225200C2
S11346505143441800F0FCFD0700029800280AD0DA
S113466068468089002806D068460079002802D16F
S11346702079002801D101207AE0404E3068874239
S113468002D1200000F07CF8F920205C102148437E
S113469020185E21405C00281BD0306887420BD074
S11346A0F820205C401CF82160540021C943F42008
S11346B0205800F03AFE0CE0F920205C1021484319
S11346C020185E21405C002803D0200000F058F838
S11346D0F2E700F043FFF920205C10214843201842
S11346E05E21405C002824D1F920205C102148433D
S11346F02018503000900BA8007801210143009845
S1134700817368468089009988810298009988603D
S11347100498009908600A9800994860F920205C80
S1134720401CF9216054F920205C0A2801DBF9209F
S1134730255400F00FFF0098002818D0FB20205CBF
S1134740FF280ED1FA20205CFB21605468460079D2
S1134750FFF77FFE002808D068460079FFF703FFC3
S113476003E00421306800F01BFE002000E0082074
S113477005B0F0BD00000000D81100209C1C0020F2
S113478010B50400FA20205C1021484320185E2153
S1134790405CC0075CD5FA20205C102148432018F7
S11347A05C21405A002853D1FA20205C1021484350
S11347B020185E21FA22A25C10235A43A2185E2319
S11347C0D25CFE2313404354FA20205C102148435A
S11347D02018006D00280CD0FA20205C10214843DA
S11347E02018406DFA21615C102251436118096D53
S11347F08847FA20205C1021484320185E21405C41
S1134800800703D5F020205800F084FD0020FA2111
S1134810615C1022514361185E2203008B54FA211B
S1134820615C491CFA22A154FA21615C0A2901DB6A
S1134830FA216054F820205C0028A3D0F820205CE2
S1134840401EF8216054F420205800F063FD99E7DD
S113485010BD00B5002A05D00B780370401C491C1C
S1134860521EF7E700BD00B5002A02D0521E815443
S1134870FAE700BD70B5060050480468E56900F029
S113488011F8A8680B280AD00B20A860EE62412119
S1134890280001F017FC686829680160486000F08E
S11348A00FF870BD00B545480068C169896C0029DE
S11348B000D172B6C169896C491CC269916400BD9A
S11348C000B53E480068C169896C00290ED0C169F1
S11348D0896C491EC2699164C169896C002905D13A
S11348E0018B002901D062B600E062B600BD38B584
S11348F0040032480568A86B002804D1182001F090
S11349005FFA002011E0E86A844202D3286BA042D7
S113491004D2142001F054FA002006E0E86A201AB8
S1134920A96B0C2250430818806832BDF7B5040007
S113493022480568A86B002804D1182001F040FA29
S113494000201AE0E86A844202D3286BA04204D211
S1134950142001F035FA00200FE0A86BE96A611A0F
S11349600C2251434618FFF79DFF376801983060C9
S11349700298B060FFF7A4FF3800FEBD70B50200D6
S1134980914201D20C2016E00C4803680C48BC2468
S113499018510C4898628D1A6D1C0B4C9C63DA629A
S11349A019632E00751E002E04D02060A260521CD4
S11349B00C34F6E7002070BD0000000094F0FF1FE7
S11349C0278A0000754800005C0C002000B51B49D4
S11349D0491E0020802805D20A78491C184B1A5415
S11349E0401CF7E700BD38B505000C00154805600C
S11349F00621C170446008201349884732BD70B550
S1134A0005000C0016003000461E00280AD021685C
S1134A102800FFF7E8FF241D002801D0012002E050
S1134A202D1DF0E7002070BD10B50400054804609A
S1134A300921C17004200449884710BD09D300002E
S1134A400C190020601C00200D190020F8214902D7
S1134A504018008880B27047F82149024018006865
S1134A6070470000704710B5040089480088012889
S1134A7005D10122210096480078FFF72BFC10BDD8
S1134A8010B5040082480088012804D12100904810
S1134A900078FFF7B0FC10BD70B506000D001400DF
S1134AA07B480088012808D12300DBB22A00D2B257
S1134AB0310087480078FFF72EFC70BD38B505003B
S1134AC00C0073480088012807D101232200D2B2C8
S1134AD029007F480078FFF7DFFB31BD10B50400E3
S1134AE06B480088022805D101222100784800780B
S1134AF0FFF7F0FB10BD70B506000D00140064480C
S1134B000088022808D12300DBB22A00D2B2310087
S1134B106F480078FFF7FFFB70BD38B505000C0047
S1134B205B480088022807D101232200D2B2290061
S1134B3067480078FFF7B0FB31BD10B5040001F001
S1134B40CBFAFFF743FF00F063F801F04CFB01F0F0
S1134B50A9FDFFF701F9200000F001F810BD70B5C0
S1134B60060000F044F800F0B7F8594D0122012185
S1134B702800FFF7A0F9CE4CA1682878FFF720FBA6
S1134B8054480078C0B2012815D0032001F0EAFD92
S1134B909020205A012803D0A5480068800706D435
S1134BA00022A4492878FFF7F4FAFCF73FFC03201D
S1134BB001F0E6FD02E000209F490870A020205A81
S1134BC0022803D09A480068800703D501209A4937
S1134BD0087002E000209849087000F05BF8002299
S1134BE0B4492878FFF7D5FA01F00CFE70BD10B572
S1134BF00024B14804802000B049087001208E4987
S1134C00087000F025FBAE490860AE48047010BD82
S1134C1070B480204000AC4908608021C902AB4BCD
S1134C201A680A431A60AA4A1060802212031C6898
S1134C3014431C60A74B18600123A74C25681D432F
S1134C402560A64D2860256802262E432660A44CC4
S1134C502060A44C25680226B5432560A24C206040
S1134C60A24C25682B432360A14B18602368194389
S1134C702160A049086021680A4322609E490860B7
S1134C8020688021C9050143216070BC7047000081
S1134C906417002080B5994891490860002298491A
S1134CA02F2000F05FFC002811D09648016889008D
S1134CB0890801608021090602680A43026092485B
S1134CC002680A430260914802681143016001BD11
S1134CD0161D002000F00740F8B50027744CA822E8
S1134CE000212000FFF7BFFD0020FFF7AFFE20806A
S1134CF0874D0220FFF7AAFE28800420FFF7A6FEB6
S1134D00A08006228349200002F0B8FC0600002E91
S1134D107AD10820FFF7A0FEA0600C20FFF79CFECC
S1134D20E0601020FFF798FE20618020FFF78EFEE0
S1134D30802160528220FFF789FE82216052842004
S1134D40FFF784FE842160528620FFF77FFE8621D0
S1134D5060528820FFF77AFE882160528A20FFF78C
S1134D6075FE8A2160528C20FFF770FE8C21605200
S1134D708E20FFF76BFE8E2160529020FFF766FEB7
S1134D80902160529220FFF761FE9221605294209C
S1134D90FFF75CFE942160529620FFF757FE9621A0
S1134DA060529820FFF752FE982160529A20FFF734
S1134DB04DFE9A2160529C20FFF748FE9C216052D0
S1134DC09E20FFF743FE9E216052A020FFF73EFE87
S1134DD0A0216052A220FFF739FEA2216052A42034
S1134DE0FFF734FEA4216052A620FFF72FFEA62170
S1134DF060521420FFF730FE60613422AC49200079
S1134E001830FFF726FD0DE0452020705320607018
S1134E104C2028704F20E070522020714120607196
S1134E2000F00CF8A168A3480078FFF7C9F9F1BDB8
S1134E3090F00F4059150000121D002070B41C485A
S1134E40E121490281603221C1600D21016101210A
S1134E508022815207228223C2528423C15200231A
S1134E601C00862544531C00882544538A2401537E
S1134E7002248E2544539025415392254153942571
S1134E804453032596268553982541539A25415327
S1134E909C2544539E240253A0228152A222815273
S1134EA0A4228152A62281524361037670BC7047CA
S1134EB0D8160020194F0000F21C0020111D0020FC
S1134EC0E01C0020181D00204890044014F00F40FE
S1134ED04C90044000A0044054F00F4004A004404F
S1134EE004B0044094F00F4000D0044014F10F408B
S1134EF048D004404CD0044078D004400301090158
S1134F00A17500001CE400E080E200E000E100E0A4
S1134F10DA1600209CEB0000F1B582B0664C674DB8
S1134F206B4601222088291862480078FFF7D2F8DE
S1134F30002800D0B7E068460088002800D1B2E01D
S1134F405F4EA620305A01284DD12088002841D038
S1134F5020882818401E00780D283BD12088285C22
S1134F600A2837D1002001002288AA18521E117085
S1134F7001002288A954208052492800FEF7A0FE8F
S1134F8001900198002813D1012090217052FFF75D
S1134F9089FCF82464022000FFF746FDA8200700DE
S1134FA0BA0831002000FFF72AFDFFF789FCB5E7B6
S1134FB02878002877D02800FEF7C6FE42490870FA
S1134FC02900424802F070FB01214148006800F0CA
S1134FD0E7F9A3E72088401C20802088FF289DDD76
S1134FE0002020809AE7208800280ED128783949AB
S1134FF008802088401C20800023374AFA21490079
S11350003648007801F0A2F988E7208805281DD1E8
S11350102C492800FEF754FE002817D12F480078A9
S113502001F0A2F9012090217052FFF73BFCF82413
S113503064022000FFF7F8FCA8200700BA0831003A
S11350402000FFF7DCFCFFF73BFC67E7214E3088CC
S11350502188884213D12148007801F085F93088ED
S1135060194908702288691C1848FFF7F2FB0121CE
S11350701748006800F094F9002020804EE7174D8F
S1135080287801F071F92088401C20802088FF28AE
S113509001DD0020208000230F4AFA2149002878EE
S11350A001F054F93AE7F7BD0021034A1180704733
S11350B018F00100161D0020F21C0020D814002056
S11350C0D8160020A4EB0000181D0020D8150020DD
S11350D0E01C0020F41C0020A9500000171D002033
S11350E0F1B5764F0021380002F018FB744D002111
S11350F0280002F0CFFB734873494A68026001221A
S11351008260724C84610A69C2611122CB68D21A2E
S11351108280002606618968C160206100F098F8E9
S1135120E0606661A5612100380002F000FB009890
S1135130FFF703FDFEE7F3B58DB00600B068002865
S113514001D1002082E000F083F800F0A7F869465E
S1135150888000F07DF8032100F07EF8B068401EDE
S1135160B060306903907069059000270497049833
S113517000281DD1514802F0FEFA0500002D08D088
S113518003986969884204D0280002F0F6FA050001
S1135190F4E7002D04D1039804900598029007E0E9
S11351A00398F16840180390059824300590DEE7D1
S11351B0B469424D200002F0B8FAA84201D11C346F
S11351C0F7E743480168491C0160006806903068AD
S11351D00790F068089011200421715E401A09902C
S11351E0F0690A900B970E980C900021029802F037
S11351F051FB2100280002F09AFAF0680090049B09
S113520006AA0021002000F007FC05002661E560E5
S1135210049860610298A061002D10D1200002F072
S1135220AEFA029802F09DFBB068401CB06000F03A
S11352300FF8019909B200F00FF8002006E000F021
S113524007F8019909B200F007F828000FB0F0BD83
S113525080B500F06FFD02BD7CB505000C00200098
S113526000B20221C943884203DB200000B20428B3
S113527001DB862011E01120210009B2461A69469B
S1135280280000F0F3FC122801D1802005E06A46D2
S11352903100280000F0FAFC002076BD1CB50400A3
S11352A06946200000F0E2FC122801D1842003E0CA
S11352B011200099401A00B216BD0000541C0020B1
S11352C0A01A0020541B0020D8D30000741B002017
S11352D09CF0FF1F70B506000C0000F03FF91C2085
S11352E000F04AF90500002D03D100F033F9002045
S11352F00FE02100280002F01AFD002806D0280043
S113530000F04DF900F026F9002002E000F022F947
S1135310280070BD10B50400200002F045FD0028EF
S113532001D0802000E0002010BD38B504000D003D
S11353302800002804D00021C943884209D012E083
S1135340200002F0FFFC002801D1002024E001200D
S113535022E0200002F098FD002802D00020C04383
S11353601AE0012018E003F01AF868430B494018CA
S1135370FA21890000F0F9FA0100200002F006FE8B
S113538001000800002803D0372803D1002003E0DF
S1135390012001E00020C04332BD0000E70300000B
S11353A0F8B507000C00002C01D0002C02D5802099
S11353B0000627E07E4802F0DEF90500E868B842FE
S11353C008D0280002F0D9F90500002DF6D180207C
S11353D0000617E000F0C2F8A86980690090210077
S11353E0A86902F0FBFA060000F0B4F830000028C7
S11353F004D0392804D18020000603E0009801E09D
S113540080200006F2BDF0B585B005000E0017003F
S1135410002E0BD0002E09D586200090002001908C
S113542068460EC80EC50C380C3D8DE0FFF710FF22
S11354300490474802F09FF90400E0680499884208
S11354400FD0200002F099F90400002CF5D182203D
S113545000900020019068460EC80EC50C380C3D23
S113546072E000F07BF8002F1ED1A069806900284B
S113547014D0B64201D1012000E00020A16989695D
S1135480C0B20840002809D0A069806901900820B2
S113549000900199A06902F06BFA02E000200090EC
S11354A0019000F057F84AE000F054F80020C0439F
S11354B0874201D1002309E002F071FF78432349B8
S11354C04018FA21890000F050FA0300002E01D0A0
S11354D0012200E00022002E01D0310000E0354915
S11354E0A06902F0B4FB039000F038F8B64201D191
S11354F0012000E00020A1698969C0B208400028A9
S113550001D0002003900398002808D0C42189000A
S113551088420ED100200190402000900DE0A06947
S113552080690190082000900199A06902F020FA96
S113553003E0002001908220009000F00BF8684600
S11355400EC80EC50C380C3D05B0F0BDE7030000D5
S1135550541C002080B5FFF7B3F901BD80B5FFF7F7
S1135560A1F901BD70B506000D0014002200290048
S11355703000FFF7DBF970BD10B5010000200E4AC2
S11355808C2314681B1B0D4C1B198B4206D3136808
S113559018000B4B186013685B18136010BD00B53E
S11355A007490968814201D10349086000BD000030
S11355B0541C0020FFFFFF7F98F0FF1F801700207E
S11355C0981C002070B506009B4D00242000E88044
S11355D02000A881AC602000E8812000A8822C6112
S11355E02E621C20FFF783F9E8612A00A1491C20E0
S11355F0FFF79CF9A861A04801688022D2000A4301
S11356000260802080009D499D4A13680B4003433B
S113561013609C4A13681940084310609A48016853
S11356207F22914380220A430260984801688022C5
S113563052010A430260B0480178F7220A4002701E
S11356400178FB220A4002709148A8802000A870CB
S1135650200028802000A94908702000A84908706B
S11356602000A8490870A848047003F02AF8010033
S1135670C9B2280000F00EF9A4488560280070BD66
S1135680F8B504000F0015002600F078002801D1B9
S1135690012013E0280080B2002801D184200DE00D
S11356A0B089002801D0082008E0FFF7FBF8B760B4
S11356B0B5810020F080FFF703F90020F2BDF8B5B2
S11356C004000F0015002600F078002801D1012005
S11356D01FE0280080B2002801D1842019E0B08A9C
S11356E0002801D0082014E0FFF7DCF83761B58208
S11356F00020F08130880121014331807E48017807
S113570080220A4302707E4801780170FFF7D8F8BE
S11357100020F2BD70B505000C002E00F0780028C2
S113572001D1012020E02000C0B2092801D381204A
S11357301AE0B47076482100C9B202225143405A9B
S1135740B08002F0BEFF002801280CD8714801780F
S1135750E0220A40B18889B2090A11430170B08875
S11357606D490870FFE7002070BD10B50100CA78CC
S1135770002A10D0604A137808241C43147013784C
S113578004241C431470137820241C4314705C4AB2
S1135790137813700FE0584A13785F241C40147078
S11357A0574B1C781C701378F7241C401470137822
S11357B0FB241C40147010BD38B50400574805780C
S11357C0EDB2A089002810D0A068411CA160290076
S11357D00170E088401CE080E088A189884204D1FF
S11357E00020A081206A03F047F831BD10B5040001
S11357F0E089A18A884212D22069411C2161007883
S113580046490870E089401CE081E089A18A884209
S113581011D10020A082206A03F038F80BE036484A
S113582001784906490E01703548017801702088D5
S11358303B490140218010BD301B002070B504009D
S11358402500384806780F210E4205D001703348F0
S113585000783000344E0640B00602D52800FFF729
S1135860ABFF2878C00704D5300602D52800FFF71F
S1135870BDFF70BD3D58000034800440FFFAFFFEB8
S113588004900440089004400CE400E000E100E0CF
S11358908813000070B505000C002E002000C0B273
S11358A00028012821D821480168214A0A40802182
S11358B0C90411430160E02016490A780240B38804
S11358C09BB21B0A13430B70B188134A11700D4924
S11358D00A781040032202430A7016480178022213
S11358E00A4302700120F07001E00020F0702800EB
S11358F0FFF73BFF70BD000003A0064002A0064076
S113590006A006400AA0064005A00640FC19002097
S1135910E8E7000000A0064001A0064007A00640FA
S1135920FEFF000004A00640DFFF000004800440E6
S1135930FFFFFFF30BA00640F446002804D44942BD
S113594000F013F8404260474042002905D45FD07C
S113595000F00BF8404249426047494200F005F824
S11359604942604703460B43E6D40022030A8B42B4
S11359700BD203098B4219D243088B422ED2411A0F
S113598000D20146524110467047FF2209023FD01F
S113599012068B4205D3121209028B4201D3121252
S11359A0090203098B4219D300E0090AC3098B4297
S11359B001D3CB01C01A524183098B4201D38B011D
S11359C0C01A524143098B4201D34B01C01A5241C0
S11359D003098B4201D30B01C01A5241C3088B4205
S11359E001D3CB00C01A524183088B4201D38B00F0
S11359F0C01A524143088B4201D34B00C01A524192
S1135A00884200D3401A5241CFD201461046704713
S1135A1008B502F065FF08BDFDB582B00F009148DE
S1135A200468002F04D5152000F0CAF900203DE0D9
S1135A3068460089002804D0132000F0C1F9002032
S1135A4034E0002000900A9B049A0399380000F087
S1135A50D1F90500002D23D0EE68E069806C0028A0
S1135A6000D172B6E069806C401CE169886428004A
S1135A7000F0ADFAE069806C00280ED0E069806C1B
S1135A80401EE1698864E069806C002805D1208BA0
S1135A90002801D062B600E062B602F02FFF00E0F9
S1135AA0002671480168491C0160300005B0F0BD52
S1135AB0F3B583B0094804680398002810D003980C
S1135AC0000C6946088068460088AA21490061588C
S1135AD089B2884204D01220B7E000BF94F0FF1FBF
S1135AE0039800F02DF90500002D03D02000483064
S1135AF0854201D11220A8E02000F83002F0C4F958
S1135B00FEF7D0FEA868092807D1FEF7D9FE2000C9
S1135B10F83002F049F9002097E0A868022807D17C
S1135B20E06985422ED0686829680160486029E0F0
S1135B3080204000A9680140002917D0A9680840C6
S1135B4000281FD068682968016048609A204000D6
S1135B50205A401E9A2149006052A8683C490140DD
S1135B60A960A86803210143A9600BE0A868800527
S1135B7008D56868296801604860E86A0089401EA1
S1135B80E96A0881A868400508D5686B296B01603B
S1135B904860E86A0089401EE96A08810920A86013
S1135BA0FEF78EFE00273E00102E11D20420704313
S1135BB02018EA2149004058002807D02800042171
S1135BC071436118EA22520089588847761CEBE732
S1135BD0EE68E069019080200006E860D420205A35
S1135BE0012805D10120D8216050DC2027500DE088
S1135BF0300080B2D8216158884207D2300080B288
S1135C00D8216050286E5C38DC216050286EE96D24
S1135C1001604860D420205A401ED42160522000E4
S1135C20F83002F0C1F8019885420AD1FEF73AFE35
S1135C306868296801604860280002F051FE02F09B
S1135C405AFE280002F04CFE002005B0F0BD000012
S1135C50FFFEFFFF10B5040000212000FFF728FF1E
S1135C6010BD000094F0FF1FCC1C002038B50500C7
S1135C700C00280000F064F80100002901D1122072
S1135C8003E0086AC0892060002032BDF7B5070030
S1135C900C0026480668C8203058A04201D20C20C7
S1135CA043E0380000F04CF80500002D01D112202B
S1135CB03BE0FEF7F7FD286AC08902990860306A64
S1135CC0019001980F21C943614340182862686C10
S1135CD0002808D0E869C089844208D2210028003D
S1135CE002F04EFF03E02100280002F049FFA868FB
S1135CF00F49884214D1E86A103800900098007B5C
S1135D0000070DD568682968016048600098008B19
S1135D10401E0099088329000098103002F016FFF5
S1135D2002F0ECFDFEF7CCFD0020FEBD94F0FF1F59
S1135D302902000055480068C069C0687047000027
S1135D40F8B5070051480468002F01D1E06936E036
S1135D50606D874202D12000483030E0E069806CF9
S1135D60002800D172B6E069806C401CE169886447
S1135D70CC2025585C3DD420265A3000461E0028ED
S1135D801AD0E868B84214D1E069806C00280ED0BB
S1135D90E069806C401EE1698864E069806C0028D9
S1135DA005D1208B002801D062B600E062B628003D
S1135DB005E0ED6D5C3DE0E7FEF782FD0020F2BDFD
S1135DC000B50100BC480268108B002802D0506B5B
S1135DD0C06801E0D069C06C002901D0002807D157
S1135DE0138B002B02D0536BD96001E0D369D964C3
S1135DF000BD0000FEB584B0070024480568002FEC
S1135E0013D00020039004990291BA2149006C58E0
S1135E102168002904D02168B94201D01C34F7E775
S1135E202168002906D1040004E0049CA0690290C2
S1135E3001200390002C04D11020FFF7C1FF0020A3
S1135E4014E02800F83002F01FF806980190059835
S1135E500090039B029AE869C168200000F018F8DA
S1135E6006002800F83001F09FFF300007B0F0BDB5
S1135E7038B591480468E569686E002801D0686EF9
S1135E8080470020FFF7E6FE31BD000094F0FF1FBD
S1135E90FEB586B006008848006805900598C821BC
S1135EA04058F16888420AD2059885218900401833
S1135EB0864204D00E20FFF783FF00207AE00E987C
S1135EC0002817D00F9CFF201230844204D20220F5
S1135ED0FFF776FF00206DE000230E9A02A9200050
S1135EE000F088F805000298241A0898002816D0B3
S1135EF01C3C14E0B4689D2C01D29C2004000F3497
S1135F000F2084430898002802D020001C3000E0B1
S1135F1020000023002202A900F06CF805000320F1
S1135F20A860E86E002801D0EF6E01E002982F18F7
S1135F30089800280DD004971C37049831001C22BF
S1135F4002F064FE049806003068802109060143CB
S1135F5031602100380000F02FF80598006AF168DC
S1135F600F22D2435143401803900398E8610398E9
S1135F70286203988089A8847069A8620E98002812
S1135F8003D0A86A20210143A962079801900398CD
S1135F9080890090330022003900280002F05EFE60
S1135FA0002801D1002005E0AE65306868650698D8
S1135FB02865280009B0F0BD00B58908491C491EB0
S1135FC0002903D03D4A0260001DF8E700BD10B56A
S1135FD039490968C26953684C6A944200D24A62DA
S1135FE00224846043601C6804601860506010BD23
S1135FF041697047FFB583B074262F480568D420E3
S1136000285A2F49884201DB002052E00498066098
S11360100598002805D0059804003100200002F0FE
S11360204BFED8202958DC202A58AA2040002858A2
S113603000040B009BB21843E060002A03D128003F
S1136040CC30009002E010005C30009000980068B2
S1136050E06523005C33009F3B60009B23662300C4
S11360605C334360D420285A401CD423E852029461
S113607002980200D06D5C38019001980290491C8E
S1136080080080B2002801D10120010001982B00F2
S1136090CC33984206D00198C0680B0080B29BB202
S11360A09842E5D0DC202A50080080B2D823E8507A
S11360B0200007B0F0BD000094F0FF1F6B61747303
S11360C0FEFF000000B50200D06C002901D00028BA
S11360D000D1D16400BD0000F8B5254F254E264CF3
S11360E0002026490880B878F9780906090C084385
S11360F005002900C9B2300001F010FB2800C0B22D
S1136100002817D02100300001F011FB21000C31D0
S1136110300002F06BFE19480188491C0180387870
S113612079780906090C084380B220180400103459
S11361306D1EE3E7387879780906090C0843B073D3
S1136140000AF073387979790906090C0843307329
S1136150000A7073307B717B0906090C084380B216
S1136160002801D1002002E010363F1DBBE7F2BD3C
S11361707CF0FF1F701A0020A8F0FF1FE41C002011
S11361806049C0B2095CE0200840704710B45D4A21
S11361900300DBB2D35CDB06DB0E0B430400E4B28A
S11361A0135510BC70475749C0B2085CC006C00EF6
S11361B0704710B4534A0300DBB2D35CE0241C40A4
S11361C00C430300DBB2D45410BC704700B500216B
S11361D04D4A1268002302F013FEFA2292000023B3
S11361E002F027FE00BD10B5484C002002F056FE18
S11361F02060206802F0BCFE4349086044484549D9
S11362000860454C0A20FFF7E1FF201A4349088043
S11362100120FFF7DBFF42490860424C002142485D
S1136220FEF789FF20602068002805D100230022A2
S11362303E49002002F06AFF10BD10B50024122C64
S11362400DD26548005D002807D180212000C0B22E
S1136250FFF79CFF2000C0B202E0641CEFE7FF20C0
S113626010BD10B5040001212E480068FFF798F80E
S113627010BDFEB50400089F22482100C9B2405C4D
S1136280002803D02000C0B2FF2800D138E020004D
S1136290C0B200F069F80198FFF798FF0500002DDF
S11362A001D101200500684601782000C0B2FFF743
S11362B080FF4B4E2000C0B21421484335502000CB
S11362C0C0B214214843301845601048006802F0F9
S11362D05AFE2100C9B214225143711888600298F1
S11362E02100C9B2142251437118C8602000C0B201
S11362F014214843301807612000C0B200F096F919
S1136300F7BD0000301C0020D41C0020D81C002045
S1136310636200006C1C0020FFFF0000F01C0020E2
S1136320D01C0020DC1C002040F0FF1FE7610000AF
S1136330F8B507000E0015001C0000942B00320075
S113634002213800C0B2FFF794FFF1BDF8B5070091
S11363500E0015001C0000942B00320001213800AF
S1136360C0B2FFF786FFF1BD70B504000026FFF749
S1136370F5F82000C0B2FFF703FF05002800C0B203
S1136380202803D02800C0B2402822D18021200038
S1136390C0B2FFF7FBFE2000C0B2FFF704FFC00647
S11363A005D5B7480178491E0170007804E00B4810
S11363B00178491E0170007808480078B0490978CE
S11363C00143C9B2002904D10121AF480068FEF796
S11363D0E7FFFFF7BFF870BD301C00200E1D002042
S11363E0E80D0020F1B588B00022D243002105A8B1
S11363F0FFF709F800270297FFF7B0F8A3480068F1
S113640002F0C1FD69468880FFF7A4F8A0486946F8
S113641089880288891A6A46D180694689880180F8
S11364203D002800C0B2122800D389E00297FFF78C
S113643095F82800C0B2FFF7A3FE694608706846C5
S11364400078402807D120212800C0B2FFF79EFE23
S1136450FFF780F872E0FFF77DF86846007820289F
S11364606CD18C4C6846C0882900C9B214225143AF
S11364706118496888421ED20297FFF76FF8280016
S1136480C0B214214843201840686946C988401A9C
S11364902900C9B214225143611848607B4800683E
S11364A002F071FD2900C9B21422514361188860B9
S11364B0FFF750F842E02800C0B2FFF774FE6946C7
S11364C04870684640780D21014000290AD0280010
S11364D0C0B214214843201847602800C0B2FFF717
S11364E043FF19E00297FFF739F82800C0B21421DE
S11364F0484320582900C9B2142251436118486006
S11365006248006802F03FFD2900C9B214225143D9
S113651061188860FFF71EF82800C0B214214843B0
S11365202018C06804900498002807D02800C0B23E
S11365301421484320180069049988476D1C70E7AA
S1136540554806883C002000C0B2122819D2200009
S1136550C0B2FFF715FE202811D14E482100C9B260
S11365601422514341184968320092B2914206D232
S11365702100C9B214225143401840680600641C2B
S1136580E1E70297FEF7EAFF404D286802F0FBFCC2
S113659069468988401A69464880684640883100BF
S11365A089B2884206D3684640883C490968401845
S11365B006000DE03948310089B26A465288891ACA
S11365C00268914204D269464988006808180600A6
S11365D0684680883018694688812A4E30780028B9
S11365E003D127480078002805D068468289002115
S11365F0286802F0CCFCFEF7ADFF3078204909781A
S11366000143C9B2002905D1286802F09FFC24483F
S11366100770E9E6224E3078002800D0E4E62868C6
S113662002F082FC01203070DEE6000038B5040080
S11366300025FEF793FF2000C0B2FFF7A1FD8028DC
S11366401AD12000C0B2FFF7AEFDC00605D50C4834
S11366500178491C0170007804E00A480178491C5B
S11366600170007840212000C0B2FFF78FFD0121A6
S113667005480068FEF794FEFEF76CFF31BD00008C
S11366800F1D00200E1D0020DC1C0020D81C002043
S1136690EE1C0020E80D0020F01C0020D01C00207F
S11366A0101D002080B5002002F04EFD002002F0F5
S11366B087FD002002F067FD002002F0A0FDFFF737
S11366C0BCFD4B49087001BD38B505000C00E80756
S11366D013D52000C0B2032804D00ED3052809D056
S11366E004D30AE0002002F049FD06E0002002F095
S11366F04AFD02E0002002F04BFDA80713D520005C
S1136700C0B2032804D00ED3052809D004D30AE06C
S1136710002002F06FFD06E0002002F070FD02E0B0
S1136720002002F071FD31BD10B50400E00703D56F
S113673004210120FFF7C8FFA00703D5042102208C
S1136740FFF7C2FF10BD10B50400E00703D5052113
S11367500120FFF7B9FFA00703D505210220FFF7A9
S1136760B3FF10BD10B50400224801782143017025
S11367701F480378204A64210078FFF7D9FD10BD33
S113678010B504002000C0B2FFF7CEFF194801780D
S1136790A14301700078002803D115480078FFF761
S11367A0E3FD10BD38B50400124D2878C00703D5A9
S11367B005210120FFF788FF2878800703D50521EC
S11367C00220FFF781FF0E48007800280ED02878B9
S11367D0400028702878400708D528788007800F63
S11367E028702878054909780143297031BD0000D3
S11367F0A5F0FF1FF81C0020A5670000A4F0FF1FF0
S1136800F71C0020F8B500252F00804C8E20205A5C
S1136810022812D12000A0300188022905D10122CA
S11368200221002002F008FD07E00088032804D1BB
S113683000220221402002F0FFFC754E75483060B2
S113684075487649086002F033FE754802F0BBFED5
S11368509220205A02F0DBFEA220205A02F0D2FE3F
S11368608620215A306802F0B3FE8220215AC9B230
S11368708420205A401EC0B202F0DCFE9E20205A22
S1136880C0B202F060FF206940B202F03FFF8020F6
S1136890205A012806D16348012141709621615A8A
S11368A0C17003E05F4829004170C5705D48012153
S11368B001700321817002F063FE5B4DFFF7BDFCA4
S11368C02870FFF7BAFC59490870FFF7B6FC58491D
S11368D00870584EFFF7B1FC30700023564A64210B
S11368E02878FFF725FD5548FEF7BDF854A0FEF7BC
S11368F0F5F800F023FE606900281DD02500183546
S11369002800FDF721FA020029009048FDF7A1FFB5
S11369102800FDF719FAC0B200F0A0F8070038000B
S1136920C0B2002808D00023464A6169FA208000DA
S113693041433078FFF70AFD00F001F8FCE77FB52A
S113694000250022D24300216846FEF75CFD68461C
S11369500079C00706D53C48FEF784F83B48007828
S113696000F07CF868460079400704D53848FEF703
S113697079F800F07BFB68460079800716D5354826
S1136980FEF770F800F0BEFC2048416900290DD0E4
S1136990A021415A012909D100232A4A4169FA2038
S11369A08000414323480078FFF7D0FC0198C005DC
S11369B01FD5164C260018363000FDF7C5F9020025
S11369C031006248FDF745FF3000FDF7BDF9C0B264
S11369D000F044F805002800C0B2002809D00023C4
S11369E0184A6169FA208000414312480078FFF791
S11369F0ADFC68460079400604D51748552101606E
S1136A00AA21016000F0F8FC7FBD0000D816002028
S1136A108C1C00208C1800200C180020901C0020D6
S1136A20E9750000881C0020131D0020141D00209F
S1136A30171D0020151D00204F75000088D7000089
S1136A400D0A00007975000070E70000181D002091
S1136A5084E7000098E7000004810440F8B50600CC
S1136A600020694648700620694608703000C0B2AC
S1136A70332803DB9C480088012807D03000C0B2CB
S1136A803B2817DB98480088022813D19748FDF764
S1136A90EAFF97480088012803D19648FEF71EF8BC
S1136AA006E001216846FEF738F89348FEF716F829
S1136AB0042018E13000C0B2092818DA8F4CA42051
S1136AC0205A022813D18E48FDF7CDFFA620205A64
S1136AD0012803D18748FEF701F806E00121684642
S1136AE0FEF71BF88448FDF7F9FF0420FBE0834C14
S1136AF0A420205A012819D1C24D2868067001200B
S1136B00296888709220205A02F081FDA220205A20
S1136B1002F078FD8620215A286802F059FD3100E0
S1136B20C9B20A4800F0FEF805009BE0B54F3000FA
S1136B30083839680870012039688870034D28784E
S1136B40612805DB2B78573B0AE000BFD8150020ED
S1136B502878412802DB2B78373B01E02B78303B47
S1136B606878612802DB6A78573A07E06878412838
S1136B7002DB6A78373A01E06A78303AA87861280B
S1136B8002DBA878573807E0A878412802DBA87808
S1136B90373801E0A8783038E978612902DBE978F0
S1136BA0573907E0E978412902DBE978373901E010
S1136BB0E97830391B0312021A4303011343080016
S1136BC0184380B202F023FDA220205A02F01AFDDD
S1136BD02879612802DB2B79573B07E02879412883
S1136BE002DB2B79373B01E02B79303B6879612854
S1136BF002DB6A79573A07E06879412802DB6A794F
S1136C00373A01E06A79303AA879612802DBA87939
S1136C10573807E0A879412802DBA879373801E022
S1136C20A8793038E979612902DBE979573907E035
S1136C30E979412902DBE979373901E0E979303929
S1136C401B0312021A4300011043014389B238683E
S1136C5002F0BEFC31000839C9B22800083000F047
S1136C6061F805002800C0B2002803D1012025499D
S1136C70087036E02800C0B2012819D12248FDF777
S1136C80F2FEA620205A012803D12048FDF726FF52
S1136C9006E001216846FDF740FF1D48FDF71EFF91
S1136CA0A020205A02281CD101201A49087018E09B
S1136CB01948FDF7D8FEA620205A012803D1174809
S1136CC0FDF70CFF06E001216846FDF726FF144896
S1136CD0FDF704FFA020205A022802D101200D490B
S1136CE008702800C0B2F2BD7C170020C8E3000081
S1136CF07E17002038EA000044EB0000D81600207C
S1136D0074E10000FB1C0020CCE5000044EA000014
S1136D104CEB0000121D0020ACE7000050EA00001C
S1136D2054EB0000F3B58BB0002001006A465174A7
S1136D300A9000250690079032480068007869465A
S1136D400874BE480078002804D0BD48FDF78BFEC7
S1136D50062071E10B9800280BD00CA800780028BD
S1136D6007D00CA802780B99264800680A30FDF772
S1136D7070FDB448FDF777FEB348FDF774FE0022BA
S1136D80022120480068001DFDF786FEAF48FDF78C
S1136D906AFE002202211B4800680830FDF77CFED1
S1136DA0AB48FDF760FE0022022116480068801DF2
S1136DB0FDF772FEA748FDF756FE002201210CA83C
S1136DC0FDF76AFEA4A0FDF74EFEA44804009E341D
S1136DD02188C9B28222805AC0B202F0C4FC059054
S1136DE09F4E7078012800D0B7E0208803F060F847
S1136DF000229C4B03F076F802000B0000209A4915
S1136E0002E000BF8C1C002003F091F90022CA4B61
S1136E1003F02AF9009001912088801E03F058F8AD
S1136E200022904B03F05EF802000B0000980199D9
S1136E3003F0F4F903F054FA08AA03C2083A0598D7
S1136E4003F07AFA00228023DB0503F04BF800906C
S1136E500191059803F070FA0022B84B03F042F850
S1136E60009A019B03F000F902900391059803F046
S1136E7063FA0090019108A803C80022C94B03F0EB
S1136E8031F80022C84B03F0EFF8009A019B03F09D
S1136E9029F8029A039B03F0E7F803F021FA03F0C0
S1136EA077FA323006906846007C0C30082148435B
S1136EB003F00EF800900191208802F0F9FF0022FF
S1136EC0684B03F00FF802000B000098019903F0DF
S1136ED02EF90022984B03F0C7F800900191208806
S1136EE0801E02F0F5FF00225E4B02F0FBFF020061
S1136EF00B000098019903F091F903F0F1F90400F3
S1136F000D00059803F018FA00228C4B02F0EAFFFA
S1136F1002900391059803F00FFA0090019120006C
S1136F20290000229F4B02F0DDFF00229E4B03F05C
S1136F309BF8009A019B02F0D5FF029A039B03F091
S1136F4093F803F0CDF903F023FA050006982C1802
S1136F50F078401C4443643454E06846007C0C30B0
S1136F600821484302F0B4FF06000F00208802F015
S1136F709FFF00223B4B02F0B5FF02000B003000E4
S1136F80390003F0D4F800226B4B03F06DF80600CF
S1136F900F002088801E02F09BFF0022314B02F07C
S1136FA0A1FF02000B003000390003F037F903F0B1
S1136FB097F904000D00059803F0BEF900225F4B19
S1136FC002F090FF00900191059803F0B5F90600D6
S1136FD00F000020734922002B0002F083FF0022DF
S1136FE0714B03F041F832003B0002F07BFF009A42
S1136FF0019B03F039F803F073F903F0C9F90500B4
S11370002C006434694801680978006802F0AFFA1A
S113701006003000C0B2002802D03000C0B20BE03D
S11370200023AD4A2100AD480078FFF78FF9022014
